{
  "contractName": "Leveraged",
  "abi": [
    {
      "inputs": [
        {
          "internalType": "address",
          "name": "",
          "type": "address"
        }
      ],
      "name": "buyAmount",
      "outputs": [
        {
          "internalType": "uint256",
          "name": "",
          "type": "uint256"
        }
      ],
      "stateMutability": "view",
      "type": "function"
    },
    {
      "inputs": [
        {
          "internalType": "address",
          "name": "",
          "type": "address"
        }
      ],
      "name": "buyLeverage",
      "outputs": [
        {
          "internalType": "uint8",
          "name": "",
          "type": "uint8"
        }
      ],
      "stateMutability": "view",
      "type": "function"
    },
    {
      "inputs": [
        {
          "internalType": "address",
          "name": "",
          "type": "address"
        }
      ],
      "name": "buyPrice",
      "outputs": [
        {
          "internalType": "uint256",
          "name": "",
          "type": "uint256"
        }
      ],
      "stateMutability": "view",
      "type": "function"
    },
    {
      "inputs": [],
      "name": "ceo",
      "outputs": [
        {
          "internalType": "address",
          "name": "",
          "type": "address"
        }
      ],
      "stateMutability": "view",
      "type": "function"
    },
    {
      "inputs": [
        {
          "internalType": "address",
          "name": "",
          "type": "address"
        }
      ],
      "name": "depositedFee",
      "outputs": [
        {
          "internalType": "uint256",
          "name": "",
          "type": "uint256"
        }
      ],
      "stateMutability": "view",
      "type": "function"
    },
    {
      "inputs": [
        {
          "internalType": "address",
          "name": "",
          "type": "address"
        }
      ],
      "name": "depositedUsdt",
      "outputs": [
        {
          "internalType": "uint256",
          "name": "",
          "type": "uint256"
        }
      ],
      "stateMutability": "view",
      "type": "function"
    },
    {
      "inputs": [
        {
          "internalType": "address",
          "name": "",
          "type": "address"
        }
      ],
      "name": "shares",
      "outputs": [
        {
          "internalType": "uint256",
          "name": "",
          "type": "uint256"
        }
      ],
      "stateMutability": "view",
      "type": "function"
    },
    {
      "inputs": [],
      "name": "totalShares",
      "outputs": [
        {
          "internalType": "uint256",
          "name": "",
          "type": "uint256"
        }
      ],
      "stateMutability": "view",
      "type": "function"
    },
    {
      "inputs": [
        {
          "internalType": "uint256",
          "name": "usdtAmount",
          "type": "uint256"
        }
      ],
      "name": "addToBank",
      "outputs": [],
      "stateMutability": "nonpayable",
      "type": "function"
    },
    {
      "inputs": [],
      "name": "withdrawFromBank",
      "outputs": [],
      "stateMutability": "nonpayable",
      "type": "function"
    },
    {
      "inputs": [
        {
          "internalType": "uint256",
          "name": "leverage",
          "type": "uint256"
        },
        {
          "internalType": "uint256",
          "name": "usdtAmount",
          "type": "uint256"
        },
        {
          "internalType": "uint256",
          "name": "ethPrice",
          "type": "uint256"
        }
      ],
      "name": "openBuy",
      "outputs": [],
      "stateMutability": "payable",
      "type": "function"
    },
    {
      "inputs": [
        {
          "internalType": "uint256",
          "name": "ethPrice",
          "type": "uint256"
        }
      ],
      "name": "closePosition",
      "outputs": [],
      "stateMutability": "nonpayable",
      "type": "function"
    },
    {
      "inputs": [
        {
          "internalType": "address",
          "name": "trader",
          "type": "address"
        }
      ],
      "name": "liquidate",
      "outputs": [],
      "stateMutability": "nonpayable",
      "type": "function"
    }
  ],
  "bytecode": "0x608060405273d9145cce52d386f254917e481eb44e9943f391386000806101000a81548173ffffffffffffffffffffffffffffffffffffffff021916908373ffffffffffffffffffffffffffffffffffffffff16021790555073c02aaa39b223fe8d0a0e5c4f27ead9083c756cc2600160006101000a81548173ffffffffffffffffffffffffffffffffffffffff021916908373ffffffffffffffffffffffffffffffffffffffff1602179055507305ff2b0db69458a0750badebc4f9e13add608c7f600260006101000a81548173ffffffffffffffffffffffffffffffffffffffff021916908373ffffffffffffffffffffffffffffffffffffffff160217905550600060045534801561011357600080fd5b5061196c806101236000396000f3fe6080604052600436106100c25760003560e01c806359228e4e1161007f578063a126d60111610059578063a126d601146103ab578063be80d447146103e6578063ce7c2ac2146103fd578063fd34778c14610462576100c2565b806359228e4e1461028a578063625cb67e146102ef578063908921fc14610354576100c2565b80630f97b58d146100c75780632f8655681461012c57806330f501061461017d578063355b22eb146101b85780633a98ef39146101fa578063477b787d14610225575b600080fd5b3480156100d357600080fd5b50610116600480360360208110156100ea57600080fd5b81019080803573ffffffffffffffffffffffffffffffffffffffff1690602001909291905050506104cd565b6040518082815260200191505060405180910390f35b34801561013857600080fd5b5061017b6004803603602081101561014f57600080fd5b81019080803573ffffffffffffffffffffffffffffffffffffffff1690602001909291905050506104e5565b005b34801561018957600080fd5b506101b6600480360360208110156101a057600080fd5b81019080803590602001909291905050506104e8565b005b6101f8600480360360608110156101ce57600080fd5b81019080803590602001909291908035906020019092919080359060200190929190505050610777565b005b34801561020657600080fd5b5061020f610ec2565b6040518082815260200191505060405180910390f35b34801561023157600080fd5b506102746004803603602081101561024857600080fd5b81019080803573ffffffffffffffffffffffffffffffffffffffff169060200190929190505050610ec8565b6040518082815260200191505060405180910390f35b34801561029657600080fd5b506102d9600480360360208110156102ad57600080fd5b81019080803573ffffffffffffffffffffffffffffffffffffffff169060200190929190505050610ee0565b6040518082815260200191505060405180910390f35b3480156102fb57600080fd5b5061033e6004803603602081101561031257600080fd5b81019080803573ffffffffffffffffffffffffffffffffffffffff169060200190929190505050610ef8565b6040518082815260200191505060405180910390f35b34801561036057600080fd5b50610369610f10565b604051808273ffffffffffffffffffffffffffffffffffffffff1673ffffffffffffffffffffffffffffffffffffffff16815260200191505060405180910390f35b3480156103b757600080fd5b506103e4600480360360208110156103ce57600080fd5b8101908080359060200190929190505050610f36565b005b3480156103f257600080fd5b506103fb611630565b005b34801561040957600080fd5b5061044c6004803603602081101561042057600080fd5b81019080803573ffffffffffffffffffffffffffffffffffffffff16906020019092919050505061181e565b6040518082815260200191505060405180910390f35b34801561046e57600080fd5b506104b16004803603602081101561048557600080fd5b81019080803573ffffffffffffffffffffffffffffffffffffffff169060200190929190505050611836565b604051808260ff1660ff16815260200191505060405180910390f35b60086020528060005260406000206000915090505481565b50565b6000809054906101000a900473ffffffffffffffffffffffffffffffffffffffff1673ffffffffffffffffffffffffffffffffffffffff166323b872dd3330846040518463ffffffff1660e01b8152600401808473ffffffffffffffffffffffffffffffffffffffff1673ffffffffffffffffffffffffffffffffffffffff1681526020018373ffffffffffffffffffffffffffffffffffffffff1673ffffffffffffffffffffffffffffffffffffffff1681526020018281526020019350505050602060405180830381600087803b1580156105c457600080fd5b505af11580156105d8573d6000803e3d6000fd5b505050506040513d60208110156105ee57600080fd5b8101908080519060200190929190505050610671576040517f08c379a000000000000000000000000000000000000000000000000000000000815260040180806020018281038252601e8152602001807f4c65766572616765643a207472616e7366657246726f6d206661696c6564000081525060200191505060405180910390fd5b600060045414156106cc5780600560003373ffffffffffffffffffffffffffffffffffffffff1673ffffffffffffffffffffffffffffffffffffffff1681526020019081526020016000208190555080600481905550610774565b6106d4611856565b6004548202816106e057fe5b04600560003373ffffffffffffffffffffffffffffffffffffffff1673ffffffffffffffffffffffffffffffffffffffff16815260200190815260200160002081905550600560003373ffffffffffffffffffffffffffffffffffffffff1673ffffffffffffffffffffffffffffffffffffffff168152602001908152602001600020546004600082825401925050819055505b50565b600a8311158015610789575060028310155b61079257600080fd5b662386f26fc100003410156107a657600080fd5b6000809054906101000a900473ffffffffffffffffffffffffffffffffffffffff1673ffffffffffffffffffffffffffffffffffffffff166323b872dd3330856040518463ffffffff1660e01b8152600401808473ffffffffffffffffffffffffffffffffffffffff1673ffffffffffffffffffffffffffffffffffffffff1681526020018373ffffffffffffffffffffffffffffffffffffffff1673ffffffffffffffffffffffffffffffffffffffff1681526020018281526020019350505050602060405180830381600087803b15801561088257600080fd5b505af1158015610896573d6000803e3d6000fd5b505050506040513d60208110156108ac57600080fd5b810190808051906020019092919050505061092f576040517f08c379a000000000000000000000000000000000000000000000000000000000815260040180806020018281038252601e8152602001807f4c65766572616765643a207472616e7366657246726f6d206661696c6564000081525060200191505060405180910390fd5b6000809054906101000a900473ffffffffffffffffffffffffffffffffffffffff1673ffffffffffffffffffffffffffffffffffffffff1663095ea7b3600260009054906101000a900473ffffffffffffffffffffffffffffffffffffffff168585026040518363ffffffff1660e01b8152600401808373ffffffffffffffffffffffffffffffffffffffff1673ffffffffffffffffffffffffffffffffffffffff16815260200182815260200192505050602060405180830381600087803b1580156109fb57600080fd5b505af1158015610a0f573d6000803e3d6000fd5b505050506040513d6020811015610a2557600080fd5b8101908080519060200190929190505050610aa8576040517f08c379a00000000000000000000000000000000000000000000000000000000081526004018080602001828103825260198152602001807f4c65766572616765643a20617070726f7665206661696c65640000000000000081525060200191505060405180910390fd5b60004790506060600267ffffffffffffffff81118015610ac757600080fd5b50604051908082528060200260200182016040528015610af65781602001602082028036833780820191505090505b5090506000809054906101000a900473ffffffffffffffffffffffffffffffffffffffff1681600081518110610b2857fe5b602002602001019073ffffffffffffffffffffffffffffffffffffffff16908173ffffffffffffffffffffffffffffffffffffffff1681525050600260009054906101000a900473ffffffffffffffffffffffffffffffffffffffff1673ffffffffffffffffffffffffffffffffffffffff1663ad5c46486040518163ffffffff1660e01b815260040160206040518083038186803b158015610bca57600080fd5b505afa158015610bde573d6000803e3d6000fd5b505050506040513d6020811015610bf457600080fd5b810190808051906020019092919050505081600181518110610c1257fe5b602002602001019073ffffffffffffffffffffffffffffffffffffffff16908173ffffffffffffffffffffffffffffffffffffffff1681525050600260009054906101000a900473ffffffffffffffffffffffffffffffffffffffff1673ffffffffffffffffffffffffffffffffffffffff166318cbafe58686028588880281610c9857fe5b048430426040518663ffffffff1660e01b815260040180868152602001858152602001806020018473ffffffffffffffffffffffffffffffffffffffff1673ffffffffffffffffffffffffffffffffffffffff168152602001838152602001828103825285818151815260200191508051906020019060200280838360005b83811015610d32578082015181840152602081019050610d17565b505050509050019650505050505050600060405180830381600087803b158015610d5b57600080fd5b505af1158015610d6f573d6000803e3d6000fd5b505050506040513d6000823e3d601f19601f820116820180604052506020811015610d9957600080fd5b8101908080516040519392919084640100000000821115610db957600080fd5b83820191506020820185811115610dcf57600080fd5b8251866020820283011164010000000082111715610dec57600080fd5b8083526020830192505050908051906020019060200280838360005b83811015610e23578082015181840152602081019050610e08565b5050505090500160405250505050814703600960003373ffffffffffffffffffffffffffffffffffffffff1673ffffffffffffffffffffffffffffffffffffffff1681526020019081526020016000208190555082600860003373ffffffffffffffffffffffffffffffffffffffff1673ffffffffffffffffffffffffffffffffffffffff168152602001908152602001600020819055505050505050565b60045481565b60076020528060005260406000206000915090505481565b60066020528060005260406000206000915090505481565b60096020528060005260406000206000915090505481565b600360009054906101000a900473ffffffffffffffffffffffffffffffffffffffff1681565b6000600960003373ffffffffffffffffffffffffffffffffffffffff1673ffffffffffffffffffffffffffffffffffffffff168152602001908152602001600020541015610f8357600080fd5b6060600267ffffffffffffffff81118015610f9d57600080fd5b50604051908082528060200260200182016040528015610fcc5781602001602082028036833780820191505090505b509050600260009054906101000a900473ffffffffffffffffffffffffffffffffffffffff1673ffffffffffffffffffffffffffffffffffffffff1663ad5c46486040518163ffffffff1660e01b815260040160206040518083038186803b15801561103757600080fd5b505afa15801561104b573d6000803e3d6000fd5b505050506040513d602081101561106157600080fd5b81019080805190602001909291905050508160008151811061107f57fe5b602002602001019073ffffffffffffffffffffffffffffffffffffffff16908173ffffffffffffffffffffffffffffffffffffffff16815250506000809054906101000a900473ffffffffffffffffffffffffffffffffffffffff16816001815181106110e857fe5b602002602001019073ffffffffffffffffffffffffffffffffffffffff16908173ffffffffffffffffffffffffffffffffffffffff168152505060006103e86103d9600a60003373ffffffffffffffffffffffffffffffffffffffff1673ffffffffffffffffffffffffffffffffffffffff16815260200190815260200160002060009054906101000a900460ff1660ff1685600960003373ffffffffffffffffffffffffffffffffffffffff1673ffffffffffffffffffffffffffffffffffffffff16815260200190815260200160002054816111c257fe5b04816111ca57fe5b04816111d257fe5b04029050600260009054906101000a900473ffffffffffffffffffffffffffffffffffffffff1673ffffffffffffffffffffffffffffffffffffffff16637ff36ab560646103e3600960003373ffffffffffffffffffffffffffffffffffffffff1673ffffffffffffffffffffffffffffffffffffffff168152602001908152602001600020548161126057fe5b04028430426040518563ffffffff1660e01b815260040180858152602001806020018473ffffffffffffffffffffffffffffffffffffffff1673ffffffffffffffffffffffffffffffffffffffff168152602001838152602001828103825285818151815260200191508051906020019060200280838360005b838110156112f55780820151818401526020810190506112da565b5050505090500195505050505050600060405180830381600087803b15801561131d57600080fd5b505af1158015611331573d6000803e3d6000fd5b505050506040513d6000823e3d601f19601f82011682018060405250602081101561135b57600080fd5b810190808051604051939291908464010000000082111561137b57600080fd5b8382019150602082018581111561139157600080fd5b82518660208202830111640100000000821117156113ae57600080fd5b8083526020830192505050908051906020019060200280838360005b838110156113e55780820151818401526020810190506113ca565b50505050905001604052505050506000809054906101000a900473ffffffffffffffffffffffffffffffffffffffff1673ffffffffffffffffffffffffffffffffffffffff1663095ea7b333836040518363ffffffff1660e01b8152600401808373ffffffffffffffffffffffffffffffffffffffff1673ffffffffffffffffffffffffffffffffffffffff16815260200182815260200192505050602060405180830381600087803b15801561149b57600080fd5b505af11580156114af573d6000803e3d6000fd5b505050506040513d60208110156114c557600080fd5b8101908080519060200190929190505050611548576040517f08c379a00000000000000000000000000000000000000000000000000000000081526004018080602001828103825260198152602001807f4c65766572616765643a20617070726f7665206661696c65640000000000000081525060200191505060405180910390fd5b6000600860003373ffffffffffffffffffffffffffffffffffffffff1673ffffffffffffffffffffffffffffffffffffffff168152602001908152602001600020819055506000600960003373ffffffffffffffffffffffffffffffffffffffff1673ffffffffffffffffffffffffffffffffffffffff168152602001908152602001600020819055506000600a60003373ffffffffffffffffffffffffffffffffffffffff1673ffffffffffffffffffffffffffffffffffffffff16815260200190815260200160002060006101000a81548160ff021916908360ff160217905550505050565b6000600560003373ffffffffffffffffffffffffffffffffffffffff1673ffffffffffffffffffffffffffffffffffffffff16815260200190815260200160002054116116e5576040517f08c379a00000000000000000000000000000000000000000000000000000000081526004018080602001828103825260148152602001807f4c65766572616765643a206e6f2073686172657300000000000000000000000081525060200191505060405180910390fd5b6000809054906101000a900473ffffffffffffffffffffffffffffffffffffffff1673ffffffffffffffffffffffffffffffffffffffff1663a9059cbb3361172b611856565b600454600560003373ffffffffffffffffffffffffffffffffffffffff1673ffffffffffffffffffffffffffffffffffffffff168152602001908152602001600020548161177557fe5b04026040518363ffffffff1660e01b8152600401808373ffffffffffffffffffffffffffffffffffffffff1673ffffffffffffffffffffffffffffffffffffffff16815260200182815260200192505050602060405180830381600087803b1580156117e057600080fd5b505af11580156117f4573d6000803e3d6000fd5b505050506040513d602081101561180a57600080fd5b810190808051906020019092919050505050565b60056020528060005260406000206000915090505481565b600a6020528060005260406000206000915054906101000a900460ff1681565b60008060009054906101000a900473ffffffffffffffffffffffffffffffffffffffff1673ffffffffffffffffffffffffffffffffffffffff166370a08231306040518263ffffffff1660e01b8152600401808273ffffffffffffffffffffffffffffffffffffffff1673ffffffffffffffffffffffffffffffffffffffff16815260200191505060206040518083038186803b1580156118f657600080fd5b505afa15801561190a573d6000803e3d6000fd5b505050506040513d602081101561192057600080fd5b810190808051906020019092919050505090509056fea2646970667358221220fd2b68b487dda6fffb8ea44298d19e9feb4e29b0e14eac94505e4c790450347e64736f6c63430006060033",
  "immutableReferences": {},
  "source": "// SPDX-License-Identifier: MIT\n\npragma solidity ^0.6.6;\n\nimport \"./interfaces/IERC20.sol\";\nimport \"./Uniswap.sol\";\n\ncontract Leveraged {\n    \n    IERC20 usdt = IERC20(0xd9145CCE52D386f254917e481eB44e9943F39138);\n    IERC20 weth = IERC20(0xC02aaA39b223FE8D0A0e5C4F27eAD9083C756Cc2);\n    UniswapV2Router02 uniswap = UniswapV2Router02(0x05fF2B0DB69458A0750badebc4f9e13aDd608C7F); // PancakeSwap\n    \n    address public ceo;\n    uint public totalShares = 0;\n    mapping(address => uint) public shares;\n    mapping(address => uint) public depositedFee;\n    mapping(address => uint) public depositedUsdt;\n    mapping(address => uint) public buyPrice;\n    mapping(address => uint) public buyAmount;\n    mapping(address => uint8) public buyLeverage;\n    \n    function getTotalUsdt() view private returns(uint256) {\n        return usdt.balanceOf(address(this));\n    }\n    \n    function addToBank(uint usdtAmount) public {\n        require(usdt.transferFrom(msg.sender, address(this), usdtAmount), \"Leveraged: transferFrom failed\");\n        \n        if (totalShares == 0) {\n            shares[msg.sender] = usdtAmount;\n            totalShares = usdtAmount;\n        } else {\n            shares[msg.sender] = usdtAmount * totalShares / getTotalUsdt();\n            totalShares += shares[msg.sender];\n        }\n    }\n    \n    function withdrawFromBank() public {\n        require(shares[msg.sender] > 0, \"Leveraged: no shares\");\n        usdt.transfer(msg.sender, shares[msg.sender] / totalShares * getTotalUsdt());\n    }\n    \n    function openBuy(uint leverage, uint usdtAmount, uint ethPrice) public payable {\n        require(leverage <= 10 && leverage >= 2);\n        require(msg.value >= 0.01 ether);\n        require(usdt.transferFrom(msg.sender, address(this), usdtAmount), \"Leveraged: transferFrom failed\");\n        require(usdt.approve(address(uniswap), usdtAmount * leverage), \"Leveraged: approve failed\");\n        \n        uint preBalance = address(this).balance;\n        \n        address[] memory path = new address[](2);\n        path[0] = address(usdt);\n        path[1] = uniswap.WETH();\n        \n        uniswap.swapExactTokensForETH(usdtAmount * leverage, usdtAmount * leverage / ethPrice, path, address(this), block.timestamp);\n        \n        buyAmount[msg.sender] = address(this).balance - preBalance;\n        buyPrice[msg.sender] = ethPrice;\n    }\n    \n    function closePosition(uint ethPrice) public {\n        require(buyAmount[msg.sender] >= 0);\n        \n        address[] memory path = new address[](2);\n        path[0] = uniswap.WETH();\n        path[1] = address(usdt);\n        \n        uint usdtTotal = buyAmount[msg.sender] / ethPrice / buyLeverage[msg.sender] / 985 * 1000;\n        uniswap.swapExactETHForTokens(buyAmount[msg.sender] / 995 * 100, path, address(this), block.timestamp);\n        \n        require(usdt.approve(msg.sender, usdtTotal), \"Leveraged: approve failed\");\n        \n        buyPrice[msg.sender] = 0;\n        buyAmount[msg.sender] = 0;\n        buyLeverage[msg.sender] = 0;\n    }\n    \n    function liquidate(address trader) public {\n        \n    }\n}\n",
  "sourcePath": "/home/jon/sol/leveraged/contracts/Leveraged.sol",
  "compiler": {
    "name": "solc",
    "version": "0.6.6+commit.6c089d02.Emscripten.clang"
  },
  "schemaVersion": "3.4.0",
  "updatedAt": "2021-05-01T23:38:19.774Z",
  "devdoc": {
    "methods": {}
  },
  "userdoc": {
    "methods": {}
  }
}